:020000040000fa
:04005c00a8040000f4
:020000040000fa
:04007c00a8040000d4
:020000040000fa
:04000c00a804000044
:020000040000fa
:0400b400a80400009c
:020000040000fa
:0400b000a8040000a0
:020000040000fa
:04014000a80400000f
:020000040000fa
:04010800a804000047
:020000040000fa
:04010400a80400004b
:020000040000fa
:04014400a80400000b
:020000040000fa
:04007000a8040000e0
:020000040000fa
:04007400a8040000dc
:020000040000fa
:04013400a80400001b
:020000040000fa
:04011400a80400003b
:020000040000fa
:04011800a804000037
:020000040000fa
:04003800a804000018
:020000040000fa
:04020800a804000046
:020000040000fa
:04020c00a804000042
:020000040000fa
:04023000a80400001e
:020000040000fa
:04023400a80400001a
:020000040000fa
:04023800a804000016
:020000040000fa
:04006000a8040000f0
:020000040000fa
:04008800a8040000c8
:020000040000fa
:0400b800a804000098
:020000040000fa
:0400e000a804000070
:020000040000fa
:04011c00a804000033
:020000040000fa
:04013800a804000017
:020000040000fa
:04013c00a804000013
:020000040000fa
:04020000a80400004e
:020000040000fa
:04020400a80400004a
:020000040000fa
:04001c00a804000034
:020000040000fa
:04001000a804000040
:020000040000fa
:04021c00a804000032
:020000040000fa
:04022400a80400002a
:020000040000fa
:04022c00a804000022
:020000040000fa
:04024400a80400000a
:020000040000fa
:04024c00a804000002
:020000040000fa
:04025400a8040000fa
:020000040000fa
:04025c00a8040000f2
:020000040000fa
:04002c00a804000024
:020000040000fa
:04003c00a804000014
:020000040000fa
:0400bc00a804000094
:020000040000fa
:0400c000a804000090
:020000040000fa
:0400c400a80400008c
:020000040000fa
:0400c800a804000088
:020000040000fa
:04008000a8040000d0
:020000040000fa
:04008400a8040000cc
:020000040000fa
:04019c00a8040000b3
:020000040000fa
:04026000a8040000ee
:020000040000fa
:04002800a804000028
:020000040000fa
:0400fc00a804000054
:020000040000fa
:04010000a80400004f
:020000040000fa
:0401b800a804000097
:020000040000fa
:0401bc00a804000093
:020000040000fa
:0401c000a80400008f
:020000040000fa
:0401c400a80400008b
:020000040000fa
:0401c800a804000087
:020000040000fa
:0401cc00a804000083
:020000040000fa
:0401d000a80400007f
:020000040000fa
:0401d400a80400007b
:020000040000fa
:0401d800a804000077
:020000040000fa
:0401dc00a804000073
:020000040000fa
:0401e000a80400006f
:020000040000fa
:0401e400a80400006b
:020000040000fa
:0401e800a804000067
:020000040000fa
:0401ec00a804000063
:020000040000fa
:0401f000a80400005f
:020000040000fa
:0401f400a80400005b
:020000040000fa
:0401f800a804000057
:020000040000fa
:0401fc00a804000053
:020000040000fa
:04023c00a804000012
:020000040000fa
:04012400a80400002b
:020000040000fa
:04012800a804000027
:020000040000fa
:04014800a804000007
:020000040000fa
:04015000a8040000ff
:020000040000fa
:04015800a8040000f7
:020000040000fa
:04015c00a8040000f3
:020000040000fa
:04016000a8040000ef
:020000040000fa
:04016400a8040000eb
:020000040000fa
:04016800a8040000e7
:020000040000fa
:04017800a8040000d7
:020000040000fa
:04017c00a8040000d3
:020000040000fa
:04026400a8040000ea
:020000040000fa
:04006c00a8040000e4
:020000040000fa
:0400f000a804000060
:020000040000fa
:04001800a804000038
:020000040000fa
:04006400a8040000ec
:020000040000fa
:04021800a804000036
:020000040000fa
:04022000a80400002e
:020000040000fa
:04022800a804000026
:020000040000fa
:04024000a80400000e
:020000040000fa
:04024800a804000006
:020000040000fa
:04025000a8040000fe
:020000040000fa
:04025800a8040000f6
:020000040000fa
:04003000a804000020
:020000040000fa
:04004000a804000010
:020000040000fa
:04008c00a8040000c4
:020000040000fa
:04009000a8040000c0
:020000040000fa
:0400cc00a804000084
:020000040000fa
:0400d000a804000080
:020000040000fa
:0400d400a80400007c
:020000040000fa
:0400d800a804000078
:020000040000fa
:04019800a8040000b7
:020000040000fa
:04000800a804000048
:020000040000fa
:0400dc00a804000074
:020000040000fa
:0401a000a8040000af
:020000040000fa
:0401a400a8040000ab
:020000040000fa
:0401a800a8040000a7
:020000040000fa
:0401ac00a8040000a3
:020000040000fa
:0401b000a80400009f
:020000040000fa
:0401b400a80400009b
:020000040000fa
:04014c00a804000003
:020000040000fa
:04010c00a804000043
:020000040000fa
:04011000a80400003f
:020000040000fa
:04015400a8040000fb
:020000040000fa
:04012000a80400002f
:020000040000fa
:04002400a80400002c
:020000040000fa
:04006800a8040000e8
:020000040000fa
:0400ec00a804000064
:020000040000fa
:04004c00a804000004
:020000040000fa
:04005000a804000000
:020000040000fa
:0400a800a8040000a8
:020000040000fa
:0400ac00a8040000a4
:020000040000fa
:04019000a8040000bf
:020000040000fa
:04019400a8040000bb
:020000040000fa
:04021000a80400003e
:020000040000fa
:04021400a80400003a
:020000040000fa
:04002000a804000030
:020000040000fa
:04001400a80400003c
:020000040000fa
:04003400a80400001c
:020000040000fa
:04004400a80400000c
:020000040000fa
:04009400a8040000bc
:020000040000fa
:04009800a8040000b8
:020000040000fa
:0400e400a80400006c
:020000040000fa
:0400e800a804000068
:020000040000fa
:0400f400a80400005c
:020000040000fa
:0400f800a804000058
:020000040000fa
:04012c00a804000023
:020000040000fa
:04005800a8040000f8
:020000040000fa
:04013000a80400001f
:020000040000fa
:0400a400a8040000ac
:020000040000fa
:04016c00a8040000e3
:020000040000fa
:04017000a8040000df
:020000040000fa
:04017400a8040000db
:020000040000fa
:04018400a8040000cb
:020000040000fa
:04018800a8040000c7
:020000040000fa
:04018c00a8040000c3
:020000040000fa
:04018000a8040000cf
:020000040000fa
:080000000002040000000000f2
:020000040000fa
:100400008ff221000eff27000e018800000000007f
:10041000000020000000e000020032000001200087
:1004200020028800140007004b0107000000e000d4
:1004300003003a00e01f2100010020000200370005
:100440000000200001002000810f70000100320038
:100450000f000700000020000000e0000200320052
:100460000000020000000000ac0e020000000000ce
:100470000040da000000fe00800020000000e000e4
:1004800002003200002020009001880000000600d9
:10049000a1028800800478000000eb001f003700f4
:1004a000e284440054a0b4009905ba00e2844400f8
:1004b00054a0b4009906ba00e284440054a0b400e9
:1004c0000006eb00476fde00fd07b200ae018800ba
:1004d000636ce10003003a000ad801000000eb0061
:1004e0000e003700606ce10008003a00004deb00a0
:1004f0000a05e800020039003420ec000af0a000f0
:100500008b05e900f9ff3e00040037006168e10057
:10051000010032000086eb000b00070019c7ba008b
:100520000e04e0001905ba0003003a000a00e000da
:10053000dbff3a0000000600fe07b200ae028800b2
:100540008a047800f5ff37000cd0a300e20f4d00bd
:100550001c003b0089027800354dba000a05e8000e
:10056000020039003420ec000af0a0008b05e900fd
:100570000f003200254dba000a05e80002003900dc
:100580003420ec000af0a0008b05e90008003200de
:100590000c00e0000600320015cdba000a05e800a4
:1005a000020039003420ec000af0a0008b05e900bd
:1005b0008984e80054a0b4000b00e000e2ff3a0098
:1005c000000006009902ba00055d78008b05e9007d
:1005d000f7ff3200c82ade00055d78008b05e900d0
:1005e000f3ff32000c00e000f1ff320019ddba0029
:1005f000eeff37003600f800809fbe00829fbe00ed
:10060000849fbe00869fbe003200f8003400f800d0
:1006100010002000a00188000020200000d0fe0073
:100620000000fa000288a9002288a9000108a90098
:100630002108a8001100200030002000c00407009d
:100640000080fa003400f9003200f9004f03be00c8
:100650004f02be004f01be004f00be003600f90041
:10066000004006003600f800809fbe00829fbe005a
:10067000849fbe00869fbe003200f8003400f80060
:1006800010002000a00188000020200000d0fe0003
:100690000000fa0003a8a90023a8a9000108a900e6
:1006a0002108a8001100200030002000a404070049
:1006b0000080fa003400f9003200f9004f03be0058
:1006c0004f02be004f01be004f00be003600f900d1
:1006d000004006003600f800809fbe00829fbe00ea
:1006e000849fbe00869fbe003200f8003400f800f0
:1006f00010002000a00188000020200000d0fe0093
:100700000000fa000108a9008000eb003000200082
:100710008b0407002108a9001041800070006000d0
:100720000000e00009003a00117280000010200073
:10073000008060000000e000040032001000200093
:10074000108088000288a9002288a800114180003a
:1007500000002200008060000000e00009003a0074
:100760001172800000202000008060000000e00086
:1007700004003200100020002080880003a8a90097
:1007800023a8a8000080fa003400f9003200f90024
:100790004f03be004f02be004f01be004f00be001f
:1007a0003600f900004006003600f800809fbe00c9
:1007b000821f78003200f8003400f800100020009a
:1007c000a00188000020200000d0fe000000fa00f8
:1007d0000168a9000e0037005080800031118000b0
:1007e000814078006201210000004100014878004a
:1007f000508080008000e800007820000001780030
:10080000110009008200d8008000fd00508088009f
:1008100010118000610060000000e0000b00320059
:10082000508080008080e80000782000000178007f
:10083000110009008200d8008000fd0080007800cf
:1008400060808000808f5000e3ff3a00101180002c
:10085000620060000000e000010032002222a900d6
:100860000080fa003400f9003200f9004f017800ee
:100870004f00be003600f900004006003600f800c8
:10088000809fbe00821f78003200f8003400f8001c
:1008900010002000a00188000020200000d0fe00f1
:1008a0000000fa0003c8a9000e0037007080800025
:1008b000b111800081407800627921000000410080
:1008c00001487800708080008000e80000782000f7
:1008d00000017800110009008200d8008000fd00ae
:1008e0007080880090118000610060000000e000ce
:1008f0000b003200708080008080e80000782000cb
:1009000000017800110009008200d8008000fd007d
:100910008000780080808000808f5000e3ff3a00e4
:1009200090118000620060000000e00001003200d1
:100930003222a9000080fa003400f9003200f900e8
:100940004f0178004f00be003600f900004006005d
:100950000040da000000fe00000005000001be00bb
:100960001e0007000470a70003f0a10003f8a30015
:1009700013003a006509b10010003200090035008b
:100980006928e10002003500010028000000050090
:1009900000004000818048008502e900fcff3a0029
:1009a00000000600f88f4200050035008100d100ec
:1009b0000080d3008502e800fcff3a00000006003a
:1009c0008000eb00000005004f89de008201780006
:1009d0007e0237006011b8008c023700c70ade00c3
:1009e000f107b200f50fb20008003200e1cf42007b
:1009f000020032000170a00024000500810f700089
:100a0000010032000408050044000500810f700059
:100a100002003a00140005008502e90000004000d1
:100a200081c04800fcff3b000170a00024000500cd
:100a3000889fbe008a9fbe008c9fbe001b002000c6
:100a40000202be0005866800060028000606660051
:100a50004709de00f20fb200820032000243e800d4
:100a600080003200c729de00f30fb2007d003200a3
:100a70000343e8007b003200f107b2000170a000e0
:100a8000f507b2000570a000c708dd004903de00cd
:100a9000868070004700dd00c72add004923de00a4
:100aa000868272004722dd000305510004035000d6
:100ab0008583580003003100000040008180480019
:100ac0000a05e9008c1f78008a9fbe0004005000d0
:100ad000858058000402420085824a0000004000e0
:100ae000818048000005eb000004be006033b800c0
:100af0000406be000d48e100560031001100090057
:100b00004dccd8000c01b8000d02b8008481410022
:100b100060824a008283530003045c0084845c008a
:100b200060055d000a00e00025003a0080057800bd
:100b30000d40e1004900310088007800070078008e
:100b4000110009004d88d8000c01b8000d02b80052
:100b50008481410060824a006003110083835b004e
:100b600004045c00e0845c000900e00021003a001d
:100b70004f01be000300e0002b003200e3016000e3
:100b8000070673008c817100010032006400700060
:100b90004200de004e5edd000c007000c258de0038
:100ba00001e0a00083010700cf017800818071007f
:100bb0004f06be004f05be004f04be0000000600f9
:100bc0008c8343000d044c00e0844c0060054d0014
:100bd0000000e9000a00e000d4ff32008c834300eb
:100be0000d044c00e0844c0060054d000000e9005d
:100bf000ceff37000c0343008d834b0060044c0094
:100c0000e0844c000000e9000900e000d8ff320059
:100c10000c0343008d834b0060044c00e0844c00c7
:100c20000000e900d2ff37004200de004e5edd002a
:100c30000c007000c258de0001e0a000cf01780077
:100c40000300e000daff320060001000e0801800ce
:100c5000d7ff3700f0ff2f00aaff3700f0ff2f006b
:100c6000b9ff37000404be002f0107008706780093
:100c70000004fd008104fd002b01070007836600ce
:100c80000678a300030032000960a7000800be0038
:100c90002c0037000d78a300020032000800be00cf
:100ca000280037000778a30026003a0001f0a100d1
:100cb00009f0a1000668a30003003200f1ff27003d
:100cc000f0ff2f00baff37000d68a30003003200c9
:100cd0000800be008c807000b5ff37000768a300d5
:100ce00007003a000648a30003003200f1ff270086
:100cf000f0ff2f00aeff37000d48a30003003200c5
:100d00006000b8008c807000a9ff37000748a3007e
:100d10000400320001f82700000020008c807000e1
:100d2000a3ff3700760107000004fd008104fd00e9
:100d300002057800720107000802be008a017800ef
:100d400059ff37000160a00012022000a280880035
:100d500097ff37000100e000120032000500e000bc
:100d600010003200889fbe008a9fbe008c9fbe008c
:100d70000006eb0001f8a300030032006000100041
:100d8000e08018000cf0a00005f8a300030032007a
:100d900060021200e0821a000cf0a2008005eb0055
:100da00041ff37006000b8000200050003836800bf
:100db0000700280007036300470ade000480a10043
:100dc000c71ade000580a100f70f20000720e10010
:100dd000420032000728e10040003200889fbe0038
:100de0008a9fbe008c1f7800f107b200f307b200a3
:100df0000400e000640032000170a0000500e00083
:100e0000680032000370a00085054200eb07b100c6
:100e10000204b8000302b8008484440060854a00dc
:100e2000020ab800848444000a854a00030ab80014
:100e300004054500040033000804d0008984d20072
:100e40000a85d2008b05e9006158e1003d003500bc
:100e5000021020000901610003082000898161005f
:100e6000f70720008783640008867300c84cde0003
:100e7000c853dd00878474004855de000300e0009d
:100e80000600320082037600040032008904e80084
:100e900060054d000a88a3000c003a00f70f2000ff
:100ea0000758e10044003d000a70a100c75ddd0065
:100eb0000a8575008a007300090078004f067800e3
:100ec0004f05be004f04be00000006000a05d10019
:100ed0008984d3008b05e800f0ff3700881f780075
:100ee0000604780090000700070278000001fd006a
:100ef0008101fd008c0007008702780085037200e5
:100f00000778a300050032000001fd008101fd000b
:100f10009f0007004f047800000006008503720060
:100f20000748a30003003200f0ff2f00f1ff270065
:100f3000f8ff37000000200001f8270088807000cb
:100f4000f4ff3700880178004848dd008081710097
:100f50004848de00c850dd0001007000c850de00c7
:100f6000060478000b0178001600070088807000e6
:100f7000d2ff37000500e000050032001700200016
:100f80003a0007009dff370081037000f9ff3a0027
:100f9000860078004f0678004f05be004f04be0063
:100fa0000000050083037100f9ff320027002000d4
:100fb0002e00070094ff370001f82700868070009c
:100fc000f4ff37000100e00026003200610111004b
:100fd0007810e10023003c006022b8007010e100ae
:100fe0000400350080027800010078008000eb00ea
:100ff000700151000200e00009003400700311008c
:10100000062add00822ade008603dd008782720068
:101010000200de00860bdd00070070008208de00a3
:1010200084817100f4ff27000482620084817100d2
:1010300004002800848262006102600005f0a600be
:101040000000060004827100070032000000e80082
:10105000e0804800000006000002be006000b8000a
:10106000efff37006000b80000000600889fbe0058
:101070000004eb006138e10016003a000100e000d6
:1010800008003a00c800de004800dd0088002000ab
:101090000100e00003003a00c800de004800dd0067
:1010a000680444008184cf00e984540006003400c1
:1010b0008908dd00f08314008703de00878070005c
:1010c0000900dd0009044400610214004f04be0061
:1010d000000006000300e00008003a00c811de002e
:1010e0004811dd00880020000300e00003003a0002
:1010f000c811de004811dd00680444008384cf007d
:10110000e9845400060034008919dd00f0831400de
:101110008713de00878171000911dd000904440096
:10112000e1021400e9ff37002700200001f0a700ca
:1011300017002000470bde00f60fb200040032005b
:101140000643e8000a0032004702b3000000060030
:1011500001037800f607b2000603700002003a00af
:101160000703b300000006008702b300000006007a
:1011700001037800f607b200060370000200320097
:101180000770a000000006000760a0000000060035
:101190000478a300040032000578a30003003200a5
:1011a0000168a30001003a000200be000160a00037
:1011b0000000060081017000270032008002eb0071
:1011c00001f8a3000300320060001000e080180066
:1011d00015002000f4072000020242002000340025
:1011e000f70320008703600006042000000363006b
:1011f00002082000000161004700de00c909dd008f
:1012000000807100c708de000600e0000800320020
:1012100087037100060032001000b0000180b000aa
:101220000188a30002003200c108de000402e800c9
:10123000f107b200f30f20000320e10003003d009e
:101240004722dd00810072002900370001f82700e5
:101250000000eb00260037006000b8000000060028
:10126000680212007f20e100020034006000b80034
:101270001f0037006011b8007020e1000400350045
:1012800080017800010078008000eb0070025200bd
:101290000400e00009003400f00312000719dd002b
:1012a0008419de000703dd00868171000400de0082
:1012b000070bdd00060070008408de00f7ff270042
:1012c0008383630087037100060028000303630023
:1012d000070032000700e00003003a0061016000ef
:1012e00002817300020032001000b0000180b000e3
:1012f0000500a6000000060001f0a00000000600a6
:101300004f0ade004709de00f107b200f20fb2001b
:101310000b003200f207b1000170a000c708dd0029
:10132000c901de00838070004700dd000400a600d4
:101330000000060060001000e080180000000600b9
:10134000810f700001003a00000006008182cf008a
:101350000500e00010003e008082cf00ee824200d7
:101360007028e1000400390007003e00800078008a
:101370000000eb000e003700708312008600de00d4
:101380000500dd000a003700708352008600dd0092
:101390000000eb0006003700e28252008508dd0005
:1013a000708312000603de00868070000500dd00f9
:1013b0007507b0000501ea000400a6000000060061
:1013c00060001000e080180000000600881f780010
:1013d000030478000300e00007003d0060001000f7
:1013e000e080180060011900e081190002003b0054
:1013f00001f02d00030037000400070008f0a700eb
:1014000001f0a0004f04780000000600889fbe0095
:101410008a9fbe0000827000040271000482710085
:10142000260032000004be000200be006011b800b9
:101430006b092000950220000182cf000a003900cc
:101440000541b1000082cf00070039000541b1001d
:101450000982cf00040039000541b1000882cf00a5
:10146000010039000541b10005425200120032006e
:101470000a003b0082817100610164008100d1009b
:101480000080d3008984d3000884d3008b05e80052
:101490000442e800f7ff3a00070037000804440060
:1014a00089844c0000004800818048008b05e900d9
:1014b0000442e900f9ff3a00030007004f05be00af
:1014c0004f04be000000060081002000618055002e
:1014d0000b003d000b00200061fe2f000100e10029
:1014e0001d00340082817100610164008904d10013
:1014f0000884d3000000e800faff3a0071002000e1
:101500006100640003007000020060000900320006
:1015100061044400e0844c000988a5000500320005
:101520008b05e8006808e10002003a008904d10058
:101530000884d300f20f20000258e10005003d00ae
:10154000c75ddd00f907b2008980750008007800ea
:10155000000006000bf827008b0078000000050053
:020000040000fa
:04007800fa02000088
:020000040000fa
:04009c00320300002b
:020000040000fa
:040048006a03000047
:020000040000fa
:04005400d4030000d1
:020000040000fa
:0400a0003e0400001a
:020000040000fa
:101560004c440000310000004c44000032000000f8
:020000040000fa
:101570000c00fa00889fbe004007980051079800b1
:10158000de009000800c2000808f500002003400ac
:10159000800c20005007980010002000000f7800f9
:1015a0000000eb00100798005e009000e20f500072
:1015b000060034001e0078004300dd00000f7800b4
:1015c0001e0090000000e800100798005e009000e8
:1015d000ea0f5000060034001e0078004300dd00d2
:1015e000000f78001e0090000000e800100798002f
:1015f000de00900020032000808f500006003400a1
:101600001e0078004200dd00000f78001e009000f0
:101610000000e800100798009e007800803e20003f
:101620008088b9008000eb00eafc07000001be00e2
:101630000044250091c82400fdfc07000004be0002
:101640005e009000cf80de00dffc07000001be00de
:101650000800be00d5fd070020079800310798005c
:101660004e009000e20f500017003200e30f5000d0
:1016700028003200e10f500039003a0005e1a900ce
:101680001e00900000407800634060000080fb0076
:10169000630060004400dd0022088000f1fc2f00a0
:1016a0008100610001007000200888002e00900079
:1016b000be009000a9fc0700000078001008880018
:1016c0000021ef002600370011e1a9001e00900064
:1016d00000407800634060000080fb006300600011
:1016e0004400dd0082088000f1fc2f0081006100d1
:1016f00001007000800888002e009000be0090005d
:1017000096fc070000007800600888000621ef00c2
:101710001300370013e1a9001e009000004078007c
:10172000634060000080fb00630060004400dd0057
:1017300092088000f1fc2f00810061000100700020
:10174000900888002e009000be00900083fc0700e7
:1017500000007800700888000a21ef0000000000f7
:101760004f04be000080fa00000006000200fa00ec
:10177000000f78001e007800e10f500003003200d7
:10178000e20f5000080032000f0037000000000098
:1017900000408000680060000000e000fcff3200b4
:1017a0000068a90008003700000000000140800028
:1017b00000082000008060000000e000fbff320015
:1017c00000e8a900000000000080fa000000060008
:1017d0000400fa00000f7800110798009e009000a6
:1017e0001e00780062ff0700110020001e00780034
:1017f000530007001e007800dcff07001e00780081
:10180000e10f500002003a0005e1a9000400370092
:101810001e007800e20f500001003a0011e1a9001b
:101820000080fa00000006000400fa00100798008b
:101830000000eb00000f78001e009000e10f500048
:1018400003003200e20f50000f0032001e0037008c
:1018500000408000680060000000e00004003200ea
:1018600010002000000f78000068a9000100370078
:101870000000000000408000680060000000e00000
:10188000fcff3200100037000140800000082000fb
:10189000008060000000e000040032001000200022
:1018a000000f780000e8a9000100370000000000e8
:1018b0000140800000082000008060000000e0007f
:1018c000fbff3200000000001e0078000080fa00dc
:1018d000000006000800fa00200798003107980071
:1018e000120037003e009000810c2000810f500054
:1018f00001003400800c2000000f78009e0078006a
:101900002e0090001aff0700110020002e0090000a
:101910000b0007002e009000c3ff0700100798007f
:101920003e0090001e005000300798003e009000de
:101930000000e000ebff3c000080fa000000060021
:101940000400fa00000f7800110798001e007800cc
:10195000e20f50000e003200e30f5000160032007c
:10196000e10f50001e003a001e0090000040780079
:10197000614060000080fb004f00dd002108800016
:1019800001f0a10001007000200888001400370059
:101990001e00900000407800614060000080fb0065
:1019a0004f00dd008108800001f0a10001007000ff
:1019b000800888000a0037001e0090000040780070
:1019c000614060000080fb004f00dd009108800056
:1019d00001f0a100010070009008880000000000e4
:1019e0000080fa00000006000600fa00000f7800f0
:1019f00011079800220798001e007800e10f5000a0
:101a000003003200e20f50001f0032003c0037009c
:101a100021e2a9001e0090000040780061406000b3
:101a20000080fb0061006000011180000100a10046
:101a300001007000001188002e0090000040780026
:101a4000634060000080fb00630060000000400015
:101a50000211800091ff2f008100610001007000e1
:101a60000011880020a2a9002062a900301d2000da
:101a7000401188000168a9002168a80021e2a8009f
:101a80002342a8001e00370031e2a9001e0090008a
:101a900000407800614060000080fb006100600051
:101aa000811180000100a1000100700080118800f8
:101ab0002e00900000407800634060000080fb0032
:101ac00063006000000040008211800091ff2f0041
:101ad00081006100010070008011880030a2a9001f
:101ae0003062a900301d2000c011880003c8a90081
:101af00023c8a80031e2a8003342a800000000007b
:101b00000080fa00000006000800fa002007980094
:101b1000310798000000eb00000f7800400620001d
:101b2000100798002e009000e10f500015003200c1
:101b3000e20f500034003200420037001e007800ef
:101b4000be009000008040006180800062012100a2
:101b50008100410091407800014878001e0fe800a4
:101b6000608080008000e80000782000000178009c
:101b7000110009008200d8008000fd00608088000c
:101b8000010037000000000061808000508080006c
:101b9000808f5000040032001e0090009e007800ec
:101ba000808f5000e5ff35001e007800be009000d9
:101bb000008040008040eb0001487800230037009f
:101bc0001e007800be0090000080400081808000f0
:101bd000627921008100410091407800014878003d
:101be0001e0fe800808080008000e8000078200060
:101bf00000017800110009008200d8008000fd007b
:101c00008080880001003700000000008180800093
:101c100070808000808f5000040032001e00900011
:101c20009e007800808f5000e5ff35001e00780090
:101c3000be009000008040008040eb00014878002a
:101c4000020037000080eb00010037001e00780022
:101c50000080fa00000006000a00fa002007980041
:101c600031079800420798000000eb00000f780051
:101c70000000eb00100798002e009000e10f5000cc
:101c800003003200e20f5000170032002c00370032
:101c9000000000000100370000000000111180006a
:101ca00000202000008060000000e000fbff3a0000
:101cb0001e009000be0090000080400010407800a0
:101cc0000000fb00201188001e0090000000e800ca
:101cd000100798009e0090004e009000808f5000ea
:101ce000edff35001900370000000000010037004b
:101cf00000000000911180000020200000806000a2
:101d00000000e000fbff3a001e009000be009000c3
:101d100000804000104078000000fb00a011880007
:101d20001e0090000000e800100798009e00900040
:101d30004e009000808f5000edff3500030037000b
:101d40000080eb00000f7800000000001e0078000b
:101d50000080fa00000006008a07fa006e2eef00ed
:101d6000707380007072880070728000f07188005b
:101d7000f07180007071880070718000f0708800d0
:101d8000f070800070708800000ea900612ea9001c
:101d9000410ea800412ea80001358000f00f280058
:101da0008080600000802500010070000035880000
:101db000c228a9000288a9002288a8001135800045
:101dc00000f82f0080806000900520000100700066
:101dd00010358800c248a90003a8a90023a8a800bc
:101de0000134800000fc2f00008060000000a00093
:101df000003488002136800000f82f0080806000c9
:101e0000b004200001007000203688000001eb00c3
:101e10008000eb0010002000f3fe0700700420009b
:101e200020118800a100200010002000d0fd070034
:101e3000a100200030002000cdfd0700110020008f
:101e400010002000befe0700950007000080800003
:101e50000000e80000808800908080000000e00022
:101e6000110032000180800030062000808f500079
:101e70000d0034000030ef00207380004900de00c8
:101e8000614060000004a200614060000080fb002f
:101e9000610060004900dd00217380000190a10015
:101ea00001007000207388006a00470080007800fd
:101eb0001000200014ff0700000f78003080800021
:101ec0009e0040004006200000017800110009003b
:101ed0008200d8008000fd00308088006a00470042
:101ee000e4f12100a3f1210062f1210021f221009f
:101ef000740007000e00370020708000004078005a
:101f0000614060000004a200614060000080fb00ae
:101f100061006000217080000100a10001007000dc
:101f200020708800b0f880000000e900b0f8880058
:101f3000b0f880000000e000efff3c000600370032
:101f4000908080000000a20090808800c0f880008f
:101f50000000e900c0f88800c0f880000000e00040
:101f6000f7ff3c00108080000000e0001f003200fe
:101f700032808000706626000090b900c288de00c2
:101f80004f90de0000805000004078000043b00019
:101f90000042780031808000706626000089b90018
:101fa0004299de004f88de0000005100ea00b900cf
:101fb00000805000004078000043b00031c4b300fe
:101fc00021479800d1c3b300314798004447980097
:101fd000504798000e80e800420020008000780002
:101fe000100020001cff07000230ef00208080005e
:101ff0000000e0001f003200428080007066260072
:102000000090b900c288de004f90de0000805000d2
:10201000004078000043b00000427800418080001a
:10202000706626000089b9004299de004f88de0004
:1020300000005100ea00b900008050000040780024
:102040000043b00041c4b30061479800d1c3b3005e
:1020500071479800044f9800104f980066004700a1
:10206000420020008000780010002000fafe0700e7
:102070000430ef0010002000ebfd070041808000dd
:102080008100400040062000000178001100090096
:102090008200d8008000fd00408088006aff370081
:1020a0000000fa00710020002000200009fe070057
:1020b0008000eb002000200021fe07000080fa00d5
:1020c000000006001600fa006007980071079800eb
:1020d000020f9800130f9800240f98000000eb00e7
:1020e000000f78006e009000104078000004e000bf
:1020f00002003a0010002000000f78001e00780057
:102100000000e000bb003a000000eb001007980060
:10211000090037001e00900000004000ae0890004b
:10212000008040008000eb00010878001e00900055
:102130000000e800100798001e009000000040001a
:10214000fe00900000804000100078000000e000d9
:10215000f0ff3a000000eb00200798009f003700d6
:102160000000eb0030079800920037003e0090001e
:1021700000004000ae089000008040001000780091
:102180000000e000040032003e0090000000e80083
:1021900030079800870037003e00900000004000a4
:1021a000fe00900000804000100078001040780091
:1021b0000080fb000000ea004f00de0040079800ae
:1021c0000000eb005007980039003700ae00900087
:1021d0005e00900000804000ee0090000080400013
:1021e000104078000004e00015003a003e00900026
:1021f000000040009e089000808040003e0090005b
:10220000000040001e09900000004100100178000d
:102210005e00900000004100800878003e009000c1
:1022200000004000ae089000008040001100200037
:10223000010878000000eb00400798002f003700ed
:10224000ae0090005e00900000804000ee00900024
:1022500000804000904078003e0090000000400068
:102260007e01900000004100100178003e009000c7
:10227000000040009e09900000804100900178001d
:102280005e00900000804100000041001040780096
:1022900080cf5000030032000000eb0040079800a0
:1022a000160037005e0090000000e800500798001c
:1022b0004e0090000000e000100032003e00900050
:1022c00000004000fe009000008040009000780078
:1022d0003e009000000040001e09900000004100f8
:1022e000100178005e009000000041000080400076
:1022f000104078000004e000b4ff3a003e00900077
:1023000000004000ae0890000080400010007800ff
:102310000000e00013003a003e0090000000400082
:102320009e08900000804000100078000000e0004f
:102330000c0032003e009000000040009e0890001b
:10234000008040008000eb00010878004e00900003
:102350000000e00003003a003e0090000000e900a9
:10236000300798004e0090000000e0000e003200a0
:102370003e00900000004000ae0890000080400049
:10238000100078000000e00007003a003e009000d6
:10239000000040008e08900000804000900078000f
:1023a0008100e800010878003e0090000000e8008d
:1023b000300798003e00900000004000fe009000b2
:1023c00000804000100078000000e00067ff3a0045
:1023d0002e0090000000e800200798002e009000da
:1023e000ee00900000804000104078000004e00003
:0c23f0005bff3a000080fa0000000600cd
:020000040000fa
:1023fc00221f00000600000082000000b08ab4001a
:10240c008a000000161f00000c0000008000000075
:10241c00001000000a0000008000000012100000f4
:10242c0002000000820000000100000016100000f5
:10243c00000f0000800000000a10000008000000df
:10244c00800000001410000002000000800000005a
:04245c00000000007c
:00000001FF
