:020000040000fa
:080000000002040000000000f2
:020000040000fa
:040008003e030000b3
:020000040000fa
:04000c003e030000af
:020000040000fa
:040010003e030000ab
:020000040000fa
:040014003e030000a7
:020000040000fa
:040018003e030000a3
:020000040000fa
:04001c003e0300009f
:020000040000fa
:040020003e0300009b
:020000040000fa
:040024003e03000097
:020000040000fa
:040028003e03000093
:020000040000fa
:04002c003e0300008f
:020000040000fa
:040030003e0300008b
:020000040000fa
:040034003e03000087
:020000040000fa
:040038003e03000083
:020000040000fa
:04003c003e0300007f
:020000040000fa
:040040003e0300007b
:020000040000fa
:040044003e03000077
:020000040000fa
:040048003e03000073
:020000040000fa
:04004c003e0300006f
:020000040000fa
:040050003e0300006b
:020000040000fa
:04005400fa020000ac
:020000040000fa
:040058003e03000063
:020000040000fa
:04005c003e0300005f
:020000040000fa
:040060003e0300005b
:020000040000fa
:040064003e03000057
:020000040000fa
:040068003e03000053
:020000040000fa
:04006c003e0300004f
:020000040000fa
:040070003e0300004b
:020000040000fa
:040074003e03000047
:020000040000fa
:040078003e03000043
:020000040000fa
:04007c003e0300003f
:020000040000fa
:040080003e0300003b
:020000040000fa
:040084003e03000037
:020000040000fa
:040088003e03000033
:020000040000fa
:04008c003e0300002f
:020000040000fa
:040090003e0300002b
:020000040000fa
:040094003e03000027
:020000040000fa
:040098003e03000023
:020000040000fa
:04009c003e0300001f
:020000040000fa
:0400a0003e0300001b
:020000040000fa
:0400a4003e03000017
:020000040000fa
:0400a8003e03000013
:020000040000fa
:0400ac003e0300000f
:020000040000fa
:0400b0003e0300000b
:020000040000fa
:0400b4003e03000007
:020000040000fa
:0400b8003e03000003
:020000040000fa
:0400bc003e030000ff
:020000040000fa
:0400c0003e030000fb
:020000040000fa
:0400c4003e030000f7
:020000040000fa
:0400c8003e030000f3
:020000040000fa
:0400cc003e030000ef
:020000040000fa
:0400d0003e030000eb
:020000040000fa
:0400d4003e030000e7
:020000040000fa
:0400d8003e030000e3
:020000040000fa
:0400dc003e030000df
:020000040000fa
:0400e0003e030000db
:020000040000fa
:0400e4003e030000d7
:020000040000fa
:0400e8003e030000d3
:020000040000fa
:0400ec003e030000cf
:020000040000fa
:0400f0003e030000cb
:020000040000fa
:0400f4003e030000c7
:020000040000fa
:0400f8003e030000c3
:020000040000fa
:0400fc003e030000bf
:020000040000fa
:040100003e030000ba
:020000040000fa
:040104003e030000b6
:020000040000fa
:040108003e030000b2
:020000040000fa
:04010c003e030000ae
:020000040000fa
:040110003e030000aa
:020000040000fa
:040114003e030000a6
:020000040000fa
:040118003e030000a2
:020000040000fa
:04011c003e0300009e
:020000040000fa
:040120003e0300009a
:020000040000fa
:040124003e03000096
:020000040000fa
:040128003e03000092
:020000040000fa
:04012c003e0300008e
:020000040000fa
:040130003e0300008a
:020000040000fa
:040134003e03000086
:020000040000fa
:040138003e03000082
:020000040000fa
:04013c003e0300007e
:020000040000fa
:040140003e0300007a
:020000040000fa
:040144003e03000076
:020000040000fa
:040148003e03000072
:020000040000fa
:04014c003e0300006e
:020000040000fa
:040150003e0300006a
:020000040000fa
:040154003e03000066
:020000040000fa
:040158003e03000062
:020000040000fa
:04015c003e0300005e
:020000040000fa
:040160003e0300005a
:020000040000fa
:040164003e03000056
:020000040000fa
:040168003e03000052
:020000040000fa
:04016c003e0300004e
:020000040000fa
:040170003e0300004a
:020000040000fa
:040174003e03000046
:020000040000fa
:040178003e03000042
:020000040000fa
:04017c003e0300003e
:020000040000fa
:040180003e0300003a
:020000040000fa
:040184003e03000036
:020000040000fa
:040188003e03000032
:020000040000fa
:04018c003e0300002e
:020000040000fa
:040190003e0300002a
:020000040000fa
:040194003e03000026
:020000040000fa
:040198003e03000022
:020000040000fa
:04019c003e0300001e
:020000040000fa
:0401a0003e0300001a
:020000040000fa
:0401a4003e03000016
:020000040000fa
:0401a8003e03000012
:020000040000fa
:0401ac003e0300000e
:020000040000fa
:0401b0003e0300000a
:020000040000fa
:0401b4003e03000006
:020000040000fa
:0401b8003e03000002
:020000040000fa
:0401bc003e030000fe
:020000040000fa
:0401c0003e030000fa
:020000040000fa
:0401c4003e030000f6
:020000040000fa
:0401c8003e030000f2
:020000040000fa
:0401cc003e030000ee
:020000040000fa
:0401d0003e030000ea
:020000040000fa
:0401d4003e030000e6
:020000040000fa
:0401d8003e030000e2
:020000040000fa
:0401dc003e030000de
:020000040000fa
:0401e0003e030000da
:020000040000fa
:0401e4003e030000d6
:020000040000fa
:0401e8003e030000d2
:020000040000fa
:0401ec003e030000ce
:020000040000fa
:0401f0003e030000ca
:020000040000fa
:0401f4003e030000c6
:020000040000fa
:0401f8003e030000c2
:020000040000fa
:0401fc003e030000be
:020000040000fa
:040200003e030000b9
:020000040000fa
:040204003e030000b5
:020000040000fa
:040208003e030000b1
:020000040000fa
:04020c003e030000ad
:020000040000fa
:040210003e030000a9
:020000040000fa
:040214003e030000a5
:020000040000fa
:040218003e030000a1
:020000040000fa
:04021c003e0300009d
:020000040000fa
:040220003e03000099
:020000040000fa
:040224003e03000095
:020000040000fa
:040228003e03000091
:020000040000fa
:04022c003e0300008d
:020000040000fa
:040230003e03000089
:020000040000fa
:040234003e03000085
:020000040000fa
:040238003e03000081
:020000040000fa
:04023c003e0300007d
:020000040000fa
:040240003e03000079
:020000040000fa
:040244003e03000075
:020000040000fa
:040248003e03000071
:020000040000fa
:04024c003e0300006d
:020000040000fa
:040250003e03000069
:020000040000fa
:040254003e03000065
:020000040000fa
:040258003e03000061
:020000040000fa
:04025c003e0300005d
:020000040000fa
:040260003e03000059
:020000040000fa
:040264003e03000055
:020000040000fa
:100400000f0021000eff27000e01880000000000f1
:10041000000020000000e000020032000001200087
:100420002002880014000700960007000000e0008a
:1004300003003a0000002000010020000200370005
:100440000000200001002000810f70000100320038
:100450000f000700000020000000e0000200320052
:100460000000020000000000440302000000000041
:100470000040da000000fe00200020000000e00044
:1004800002003200100020009001880000000600e9
:10049000a1028800800478000000eb001f003700f4
:1004a000e284440054a0b4009905ba00e2844400f8
:1004b00054a0b4009906ba00e284440054a0b400e9
:1004c0000006eb00476fde00fd07b200ae018800ba
:1004d000636ce10003003a000ad801000000eb0061
:1004e0000e003700606ce10008003a00004deb00a0
:1004f0000a05e800020039003420ec000af0a000f0
:100500008b05e900f9ff3e00040037006168e10057
:10051000010032000086eb000b00070019c7ba008b
:100520000e04e0001905ba0003003a000a00e000da
:10053000dbff3a0000000600fe07b200ae028800b2
:100540008a047800f5ff37000cd0a300e20f4d00bd
:100550001c003b0089027800354dba000a05e8000e
:10056000020039003420ec000af0a0008b05e900fd
:100570000f003200254dba000a05e80002003900dc
:100580003420ec000af0a0008b05e90008003200de
:100590000c00e0000600320015cdba000a05e800a4
:1005a000020039003420ec000af0a0008b05e900bd
:1005b0008984e80054a0b4000b00e000e2ff3a0098
:1005c000000006009902ba00055d78008b05e9007d
:1005d000f7ff3200c82ade00055d78008b05e900d0
:1005e000f3ff32000c00e000f1ff320019ddba0029
:1005f000eeff3700809fbe003200f8003400f800a4
:1006000010002000a00188001000200000d0fe0093
:100610000200fa0020708000004078006140600015
:100620000004a200614060000080fb0061006000e7
:10063000217080000100a10001007000207088007e
:1006400030118000004f78001011800062006000bf
:100650000000e000010032002222a9000168a90088
:1006600000052000201188000080fa003400f90005
:100670003200f9004f00be00004006000040da00e2
:080680000000fe00000005006f
:020000040000fa
:100688000000fa006e2eef00707380007072880010
:1006980070728000f0718800f071800070718800bd
:1006a80070718000f0708800f070800070708800b1
:1006b800000ea900612ea900410ea800040ea80092
:1006c8000134800000fc2f00008060000000a000c2
:1006d800003488002136800000f82f0080806000f8
:1006e800b0042000010070002036880021e2a90033
:1006f8002002a8000111800090ff2f0000806000f8
:100708000011880020a2a9002062a900301d200045
:10071800401188002168a8000168a90021e2a8000a
:100728002342a8003004200020118800ffff370072
:00000001FF
