:020000040000fa
:080000000002040000000000f2
:020000040000fa
:040008001a030000d7
:020000040000fa
:04000c001a030000d3
:020000040000fa
:040010001a030000cf
:020000040000fa
:040014001a030000cb
:020000040000fa
:040018001a030000c7
:020000040000fa
:04001c001a030000c3
:020000040000fa
:040020001a030000bf
:020000040000fa
:040024001a030000bb
:020000040000fa
:040028001a030000b7
:020000040000fa
:04002c001a030000b3
:020000040000fa
:040030001a030000af
:020000040000fa
:040034001a030000ab
:020000040000fa
:040038001a030000a7
:020000040000fa
:04003c001a030000a3
:020000040000fa
:040040001a0300009f
:020000040000fa
:040044001a0300009b
:020000040000fa
:040048001a03000097
:020000040000fa
:04004c001a03000093
:020000040000fa
:040050001a0300008f
:020000040000fa
:040054001a0300008b
:020000040000fa
:040058001a03000087
:020000040000fa
:04005c001a03000083
:020000040000fa
:040060001a0300007f
:020000040000fa
:040064001a0300007b
:020000040000fa
:040068001a03000077
:020000040000fa
:04006c001a03000073
:020000040000fa
:040070001a0300006f
:020000040000fa
:040074001a0300006b
:020000040000fa
:040078001a03000067
:020000040000fa
:04007c001a03000063
:020000040000fa
:040080001a0300005f
:020000040000fa
:040084001a0300005b
:020000040000fa
:040088001a03000057
:020000040000fa
:04008c001a03000053
:020000040000fa
:040090001a0300004f
:020000040000fa
:040094001a0300004b
:020000040000fa
:040098001a03000047
:020000040000fa
:04009c001a03000043
:020000040000fa
:0400a0001a0300003f
:020000040000fa
:0400a400fa0200005c
:020000040000fa
:0400a8001a03000037
:020000040000fa
:0400ac001a03000033
:020000040000fa
:0400b0001a0300002f
:020000040000fa
:0400b4001a0300002b
:020000040000fa
:0400b8001a03000027
:020000040000fa
:0400bc001a03000023
:020000040000fa
:0400c0001a0300001f
:020000040000fa
:0400c4001a0300001b
:020000040000fa
:0400c8001a03000017
:020000040000fa
:0400cc001a03000013
:020000040000fa
:0400d0001a0300000f
:020000040000fa
:0400d4001a0300000b
:020000040000fa
:0400d8001a03000007
:020000040000fa
:0400dc001a03000003
:020000040000fa
:0400e0001a030000ff
:020000040000fa
:0400e4001a030000fb
:020000040000fa
:0400e8001a030000f7
:020000040000fa
:0400ec001a030000f3
:020000040000fa
:0400f0001a030000ef
:020000040000fa
:0400f4001a030000eb
:020000040000fa
:0400f8001a030000e7
:020000040000fa
:0400fc001a030000e3
:020000040000fa
:040100001a030000de
:020000040000fa
:040104001a030000da
:020000040000fa
:040108001a030000d6
:020000040000fa
:04010c001a030000d2
:020000040000fa
:040110001a030000ce
:020000040000fa
:040114001a030000ca
:020000040000fa
:040118001a030000c6
:020000040000fa
:04011c001a030000c2
:020000040000fa
:040120001a030000be
:020000040000fa
:040124001a030000ba
:020000040000fa
:040128001a030000b6
:020000040000fa
:04012c001a030000b2
:020000040000fa
:040130001a030000ae
:020000040000fa
:040134001a030000aa
:020000040000fa
:040138001a030000a6
:020000040000fa
:04013c001a030000a2
:020000040000fa
:040140001a0300009e
:020000040000fa
:040144001a0300009a
:020000040000fa
:040148001a03000096
:020000040000fa
:04014c001a03000092
:020000040000fa
:040150001a0300008e
:020000040000fa
:040154001a0300008a
:020000040000fa
:040158001a03000086
:020000040000fa
:04015c001a03000082
:020000040000fa
:040160001a0300007e
:020000040000fa
:040164001a0300007a
:020000040000fa
:040168001a03000076
:020000040000fa
:04016c001a03000072
:020000040000fa
:040170001a0300006e
:020000040000fa
:040174001a0300006a
:020000040000fa
:040178001a03000066
:020000040000fa
:04017c001a03000062
:020000040000fa
:040180001a0300005e
:020000040000fa
:040184001a0300005a
:020000040000fa
:040188001a03000056
:020000040000fa
:04018c001a03000052
:020000040000fa
:040190001a0300004e
:020000040000fa
:040194001a0300004a
:020000040000fa
:040198001a03000046
:020000040000fa
:04019c001a03000042
:020000040000fa
:0401a0001a0300003e
:020000040000fa
:0401a4001a0300003a
:020000040000fa
:0401a8001a03000036
:020000040000fa
:0401ac001a03000032
:020000040000fa
:0401b0001a0300002e
:020000040000fa
:0401b4001a0300002a
:020000040000fa
:0401b8001a03000026
:020000040000fa
:0401bc001a03000022
:020000040000fa
:0401c0001a0300001e
:020000040000fa
:0401c4001a0300001a
:020000040000fa
:0401c8001a03000016
:020000040000fa
:0401cc001a03000012
:020000040000fa
:0401d0001a0300000e
:020000040000fa
:0401d4001a0300000a
:020000040000fa
:0401d8001a03000006
:020000040000fa
:0401dc001a03000002
:020000040000fa
:0401e0001a030000fe
:020000040000fa
:0401e4001a030000fa
:020000040000fa
:0401e8001a030000f6
:020000040000fa
:0401ec001a030000f2
:020000040000fa
:0401f0001a030000ee
:020000040000fa
:0401f4001a030000ea
:020000040000fa
:0401f8001a030000e6
:020000040000fa
:0401fc001a030000e2
:020000040000fa
:040200001a030000dd
:020000040000fa
:040204001a030000d9
:020000040000fa
:040208001a030000d5
:020000040000fa
:04020c001a030000d1
:020000040000fa
:040210001a030000cd
:020000040000fa
:040214001a030000c9
:020000040000fa
:040218001a030000c5
:020000040000fa
:04021c001a030000c1
:020000040000fa
:040220001a030000bd
:020000040000fa
:040224001a030000b9
:020000040000fa
:040228001a030000b5
:020000040000fa
:04022c001a030000b1
:020000040000fa
:040230001a030000ad
:020000040000fa
:040234001a030000a9
:020000040000fa
:040238001a030000a5
:020000040000fa
:04023c001a030000a1
:020000040000fa
:040240001a0300009d
:020000040000fa
:040244001a03000099
:020000040000fa
:040248001a03000095
:020000040000fa
:04024c001a03000091
:020000040000fa
:040250001a0300008d
:020000040000fa
:040254001a03000089
:020000040000fa
:040258001a03000085
:020000040000fa
:04025c001a03000081
:020000040000fa
:040260001a0300007d
:020000040000fa
:040264001a03000079
:020000040000fa
:100400000f0021000eff27000e01880000000000f1
:10041000000020000000e000020032000001200087
:100420002002880014000700840007000000e0009c
:1004300003003a0000002000010020000200370005
:100440000000200001002000810f70000100320038
:100450000f000700000020000000e0000200320052
:100460000000020000000000200302000000000065
:100470000040da000000fe00200020000000e00044
:1004800002003200100020009001880000000600e9
:10049000a1028800800478000000eb001f003700f4
:1004a000e284440054a0b4009905ba00e2844400f8
:1004b00054a0b4009906ba00e284440054a0b400e9
:1004c0000006eb00476fde00fd07b200ae018800ba
:1004d000636ce10003003a000ad801000000eb0061
:1004e0000e003700606ce10008003a00004deb00a0
:1004f0000a05e800020039003420ec000af0a000f0
:100500008b05e900f9ff3e00040037006168e10057
:10051000010032000086eb000b00070019c7ba008b
:100520000e04e0001905ba0003003a000a00e000da
:10053000dbff3a0000000600fe07b200ae028800b2
:100540008a047800f5ff37000cd0a300e20f4d00bd
:100550001c003b0089027800354dba000a05e8000e
:10056000020039003420ec000af0a0008b05e900fd
:100570000f003200254dba000a05e80002003900dc
:100580003420ec000af0a0008b05e90008003200de
:100590000c00e0000600320015cdba000a05e800a4
:1005a000020039003420ec000af0a0008b05e900bd
:1005b0008984e80054a0b4000b00e000e2ff3a0098
:1005c000000006009902ba00055d78008b05e9007d
:1005d000f7ff3200c82ade00055d78008b05e900d0
:1005e000f3ff32000c00e000f1ff320019ddba0029
:1005f000eeff3700801f78003200f8003400f8006a
:1006000010002000a00188001000200000d0fe0093
:100610000000fa0003e8a90010062000a0118800dd
:100620000080fa003400f9003200f9004f00780031
:10063000004006000040da000000fe000000050057
:020000040000fa
:100640000000fa006e2eef00707380007072880058
:1006500070728000f0718800f07180007071880005
:1006600070718000f0708800f070800070708800f9
:10067000000ea900612ea900410ea80001348000df
:1006800000fc2f00008060005000b30000348800a0
:100690003136800000f82f0080806000b004200018
:1006a00001007000303688003002a80081118000ff
:1006b00090ff2f00008060000010a00080118800d3
:1006c00030a2a9003062a90030102000c0118800bb
:1006d00031e2a8003342a80030042000a0118800b5
:0406e000fdff3700e3
:00000001FF
